:100000000C9434000C943E000C943E000C943E0082
:100010000C943E000C943E000C943E000C943E0068
:100020000C943E000C943E000C943E000C94730023
:100030000C943E000C9474000C943E000C943E0012
:100040000C943E000C943E000C943E000C943E0038
:100050000C9461000C943E000C943E000C943E0005
:100060000C943E000C943E0011241FBECFEFD8E04C
:10007000DEBFCDBF0E9481000C94A0000C94000054
:10008000E4E6F0E080818D7F808387E690E09093C6
:10009000C5008093C40088ED8093C10086E0809302
:1000A000C20008959091C00095FFFCCF8093C600D8
:1000B00008958091C00087FFFCCF8091C60008950D
:1000C00008951895219A82EC8093800089E08093AE
:1000D000810080E091E0909389008093880083E222
:1000E00080936F00089518958F938FB78F939F9388
:1000F00085B190E2892785B99F918F918FBF8F91AC
:10010000189580E284B92D9A0E9440000E946200F6
:10011000789483E60E9452002FEF81EE94E0215004
:1001200080409040E1F700C00000809188009091ED
:1001300089000A9691709093890080938800E9CF96
:04014000F894FFCF61
:00000001FF
